:0C000E0054494D45525F54494D453D009A
:0A040B00020E0001C1000210000FF4
:10001E001203C81203AA1203591203E012031CE5BD
:10002E000C6401450B7005F510751105E50C6402A5
:10003E00450B7005F510751119D28C120359AE0EC1
:10004E00AF0F7C007D0A1202858E188F19AE0EAF8F
:10005E000F7C007D0A1202858C1A8D1B7F80120385
:10006E00F3E4F516F517E51790000E93FF1203FF54
:10007E000517E51770020516C3940BE5169400409C
:10008E00E57F8B1203F3E5192430FF1203FF7F8CFB
:10009E001203F3E51B2430FF1203FF7F8D1203F3CF
:1000AE007F6D1203FF7F8E1203F37F691203FF7FB2
:1000BE008F1203F37F6E1203FFC28CC2B7300003A0
:1000CE000201551203E012031CAE0EAF0F7C007D31
:1000DE000A1202858E188F19AE0EAF0F7C007D0AA4
:1000EE001202858C1A8D1B7F801203F3E4F516F530
:1000FE0017E51790000E93FF1203FF0517E5177013
:10010E00020516C3940BE516940040E57F8B12038F
:10011E00F3E5192430FF1203FF7F8C1203F3E51B66
:10012E002430FF1203FF7F8D1203F37F6D1203FF46
:10013E007F8E1203F37F691203FF7F8F1203F37F0B
:0C014E006E1203FF0200CBC2000200276B
:0703590085110D7F587E02A3
:100360007D017C007B017A00C3EB9FEA9E50070B66
:10037000BB00010A80F20DBD00010CED64764C70EB
:01038000E399
:010381002259
:1003E00020B30F7F1E7E0012036020B302D20030C4
:0303F000B3FD2238
:10031C0020B0157F0A7E0012036020B008050FE59F
:10032C000F7002050E30B0FD20B1157F0A7E001251
:10033C00036020B108E50F150F7002150E30B1FDEA
:0D034C00C3E50E94005005E4F50EF50F22F8
:1003C800758911758CFF758A9B758D3C758BB0D2BC
:0803D800AFD2A9D2ABD28E22F4
:03000B000203826B
:10038200C0E0C0D0758CFF758A9B0508E508D39440
:10039200C84003750800E508C3950D5004D2B78024
:0803A20002C2B7D0D0D0E03256
:03001B0002015A85
:10015A00C0E0C0F0C0D075D000C000C004C005C067
:03016A0006C007C5
:10016D00758D3C758BB0050AE50A7002050964149E
:10017D0045097055F509F50A050CE50C7002050BDE
:10018D000513E51370020512AE0EAF0F7C007D3C1A
:10019D00120273C3E5139FE5129E4021D20005158F
:1001AD00E51570020514D3940AE5149400400EC2AF
:1001BD0000751400751500751200751300E50C64BB
:0901CD0003450B7004F50BF50C61
:1001D600D007D006D005D004D000D0D0D0F0D0E0E3
:0101E60032E6
:1002DA00C2A58B807F017E00120303D2A77F057E11
:1002EA0000120303C2A7EBC454F0F5807F017E001D
:0902FA00120303D2A77F057E0068
:10030300D3EF9400EE9400400F7DC77C01DCFEDD4B
:08031300FAEF1F70EB1E80E8F9
:01031B0022BF
:0C03F300AB07C2A7C2A61202DAC2A72202
:0C03FF00AB07C2A7D2A61202DAC2A722E6
:1003AA007F321203F37F281203F37F0C1203F37FC9
:0E03BA00061203F37F011203F37F800203F3A8
:030000000201E713
:0C01E700787FE4F6D8FD75812002022E1E
:1001F30002001EE493A3F8E493A34003F68001F204
:1002030008DFF48029E493A3F85407240CC8C3330C
:10021300C4540F4420C8834004F456800146F6DFDB
:10022300E4800B010204081020408090040BE47E5C
:10023300019360BCA3FF543F30E509541FFEE493D0
:10024300A360010ECF54C025E060A840B8E493A397
:10025300FAE493A3F8E493A3C8C582C8CAC583CAC2
:10026300F0A3C8C582C8CAC583CADFE9DEE780BE7A
:0104150000E6
:10027300EF8DF0A4A8F0CF8CF0A428CE8DF0A42E9F
:02028300FE2259
:10028500BC000BBE0029EF8DF084FFADF022E4CC5D
:10029500F875F008EF2FFFEE33FEEC33FCEE9DEC26
:1002A500984005FCEE9DFE0FD5F0E9E4CEFD22ED6C
:1002B500F8F5F0EE8420D21CFEADF075F008EF2FB6
:1002C500FFED33FD4007985006D5F0F222C398FDA7
:0502D5000FD5F0EA2244
:00000001FF
